:100000000C942A000C9447000C9447000C94470071
:100010000C9447000C9447000C9447000C94470044
:100020000C9447000C9447000C9447000C94470034
:100030000C9447000C9447000C9447000C94470024
:100040000C9447000C9447000C9447000C94470014
:100050000C94470011241FBECFE5D8E0DEBFCDBF12
:1000600010E0A0E6B0E0E0E2F2E002C005900D9200
:10007000AA36B107D9F710E0AAE6B0E001C01D9298
:10008000AE36B107E1F70E94ED000C940E010C941E
:1000900000008FEF87BB81B38F6081BB08959C0107
:1000A00068EE73E00E94FA0060936A00C90168EE8E
:1000B00073E00E94FA0064E670E00E94FA00609328
:1000C0006B00C90164E670E00E94FA006AE070E02B
:1000D0000E94FA0060936C00C9016AE070E00E941F
:1000E000FA0080936D000895DF93CF93CDB7DEB70C
:1000F0002A970FB6F894DEBF0FBECDBF282FDE01C2
:100100001196E0E6F0E08AE001900D928150E1F76F
:10011000FE013196213039F480916A00E80FF11D1B
:100120008081805805C080916A00E80FF11D8081B0
:1001300088BB909A80ED97E00197F1F79098FE01C7
:100140003196223039F480916B00E80FF11D8081E7
:10015000805805C080916B00E80FF11D808188BB3D
:10016000919A80ED97E00197F1F79198FE01319611
:10017000233039F480916C00E80FF11D80818058A4
:1001800005C080916C00E80FF11D808188BB929AB8
:1001900080ED97E00197F1F79298FE0131962430B7
:1001A00039F480916D00E80FF11D8081805805C001
:1001B00080916D00E80FF11D808188BB939A80EDDE
:1001C00097E00197F1F793982A960FB6F894DEBF5F
:1001D0000FBECDBFCF91DF9108958FEF87BB81B365
:1001E0008F6081BB8CE397E00E944F0083E00E9408
:1001F0007400F8CFAA1BBB1B51E107C0AA1FBB1F8D
:10020000A617B70710F0A61BB70B881F991F5A95A2
:10021000A9F780959095BC01CD010895F894FFCF82
:0A0220003F065B4F666D7D077F6FA0
:00000001FF
